:020000040800F2
:1000000000300020910D00086B0300086D0300080C
:100010006F0300087103000873030008000000006C
:100020000000000000000000000000007503000850
:100030007703000800000000790300087B03000834
:10004000E10D0008E10D0008E10D0008E10D0008D8
:10005000E10D0008E10D0008E10D0008E10D0008C8
:10006000E10D0008E10D0008E10D0008E10D0008B8
:10007000E10D0008E10D0008E10D0008E10D0008A8
:10008000E10D0008E10D0008E10D0008E10D000898
:10009000E10D0008E10D0008E10D0008E10D000888
:1000A000E10D0008E10D0008E10D0008E10D000878
:1000B000E10D0008E10D000800000000E10D00085E
:1000C000E10D00080000000000000000E10D000844
:1000D00000000000E10D0008E10D0008E10D00083E
:1000E000E10D0008E10D0008000000000000000024
:1000F0000000000000000000000000000000000000
:1001000000000000000000000000000000000000EF
:100110000000000000000000E10D0008E10D0008F3
:1001200000000000000000000000000000000000CF
:1001300000000000000000000000000000000000BF
:10014000E10D0008E10D000800000000E10D0008CD
:10015000E10D0008E10D0008E10D0008E10D0008C7
:10016000E10D0008E10D00080000000000000000A3
:10017000000000000000000000000000000000007F
:0801800000000000E10D000881
:10018800830730B547D0541E002A3ED0CAB2034672
:1001980001E0013C39D303F8012B9D07F9D1032C69
:1001A8002CD9CDB205EB05250F2C05EB054535D926
:1001B800A4F1100222F00F0C03F1100EE6444FEAEE
:1001C800121C1A46156055609560D560103272454C
:1001D800F8D10CF1010214F00C0F03EB021204F039
:1001E8000F0C13D0ACF1040323F0030304331344BE
:1001F80042F8045B9A42FBD10CF003042CB1C9B25B
:100208001C4403F8011B9C42FBD130BD64461346D5
:10021800002CF4D1F9E703461446C0E71A46A44671
:10022800E0E700BF70B50F4B0F4DAB42A3EB0506DF
:1002380007D0B610002455F8043B01349847A6426D
:10024800F9D800F0CBFD094D094B5E1BAB424FEAD4
:10025800A60606D0002455F8043B01349847A64268
:10026800F9D870BD2C0E00082C0E00082C0E0008C2
:10027800300E000810B5054C237833B9044B13B180
:100288000448AFF300800123237010BD0C00002048
:1002980000000000E40D000808B5034B1BB103493A
:1002A8000348AFF3008008BD0000000010000020E4
:1002B800E40D000882B00A4B5A6942F480025A6180
:1002C8005A6902F480020092009A5A6942F4003294
:1002D8005A615B6903F400330193019B02B07047D4
:1002E8000010024072B6FEE700B591B02822002146
:1002F80006A8FFF745FF0023019302930393049395
:100308000593012206924FF4803307930A92022242
:100318000D920E934FF480130F9306A800F0A4F8E3
:1003280080B90F23019302210291002303934FF414
:1003380080620492059301A800F0DEFB20B911B099
:100348005DF804FBFFF7CEFFFFF7CCFF08B500F020
:1003580053F8FFF7C9FFFFF7ADFF642000F070F80E
:10036800FBE7FEE7FEE7FEE7FEE7FEE770477047BC
:10037800704708B500F052F808BD000082B00A4B7B
:100388009A6942F001029A619A6902F001020092A8
:10039800009ADA6942F08052DA61DB6903F080532F
:1003A8000193019B02B070470010024010B504464B
:1003B8000E4B1A784FF47A73B3FBF2F30C4A1068B9
:1003C800B0FBF3F000F0C2FC68B90F2C01D9012092
:1003D8000AE0002221464FF0FF3000F0A7FC054B51
:1003E8001C60002000E0012010BD00BF00000020BC
:1003F800080000200400002008B5074A136843F0ED
:1004080010031360032000F07FFC0F20FFF7CEFFDE
:10041800FFF7B4FF002008BD00200240034A11681E
:10042800034B1B780B441360704700BF2800002063
:1004380000000020014B1868704700BF280000200A
:1004480038B50446FFF7F6FF0546B4F1FF3F02D082
:10045800044B1B781C44FFF7EDFF401BA042FAD366
:1004680038BD00BF00000020002800F0FF8270B5F2
:1004780082B00446036813F0010F3BD0B44B5B68AD
:1004880003F00C03042B1ED0B14B5B6803F00C0384
:10049800082B13D06368B3F5803F68D0002B40F079
:1004A800928003F1804303F504331A6822F4803202
:1004B8001A601A6822F480221A605DE0A44B5B6817
:1004C80013F4803FE6D04FF4003393FAA3F3A04B24
:1004D80019684FF4003393FAA3F3B3FA83F303F0E4
:1004E8001F03012202FA03F30B4203D06368002BB7
:1004F80000F0BE82236813F0020F00F0C480944B12
:100508005B6813F00C0F00F09C80914B5B6803F064
:100518000C03082B00F08F802369002B00F0F0807B
:10052800012292FAA2F3B3FA83F303F1845303F599
:1005380084139B001A60FFF77DFF0546022393FA98
:10054800A3F3834B1968022393FAA3F3B3FA83F353
:1005580003F01F03012202FA03F30B4240F0C280AA
:10056800FFF768FF401B0228E8D9032089E2784A90
:10057800136843F480331360754AD36A23F00F037A
:10058800A1680B43D3626368002B36D0FFF752FF94
:1005980005464FF4003393FAA3F36D4B19684FF4F3
:1005A800003393FAA3F3B3FA83F303F01F03012292
:1005B80002FA03F30B429DD1FFF73CFF401B64286E
:1005C800E7D903205DE2B3F5A02F09D0604B1A6884
:1005D80022F480321A601A6822F480221A60CBE76B
:1005E80003F18043A3F53C331A6842F480221A6071
:1005F8001A6842F480321A60BEE7FFF71BFF05460F
:100608004FF4003393FAA3F3514B19684FF40033B6
:1006180093FAA3F3B3FA83F303F01F03012202FA58
:1006280003F30B423FF466AFFFF704FF401B642857
:10063800E6D9032025E2464B5B6813F4803F7FF43C
:100648006BAF022393FAA3F3414B1968022393FA81
:10065800A3F3B3FA83F303F01F03012202FA03F3AF
:100668000B4203D02369934240F004823848036860
:1006780023F0F8036169F82292FAA2F2B2FA82F240
:1006880091400B430360236813F0080F00F08C803F
:10069800A369002B60D0012191FAA1F2B2FA82F28B
:1006A8002C4B13449B001960FFF7C4FE0546022338
:1006B80093FAA3F293FAA3F293FAA3F2244A516AA3
:1006C80093FAA3F3B3FA83F303F01F03012202FAA8
:1006D80003F30B4268D1FFF7ADFE401B0228E6D9B1
:1006E8000320CEE11A48036823F0F8036169F82271
:1006F80092FAA2F2B2FA82F291400B430360C2E787
:10070800012393FAA3F3B3FA83F303F1845303F5B4
:1007180084139B0000221A60FFF78CFE0546022313
:1007280093FAA3F30A4B1968022393FAA3F3B3FAD3
:1007380083F303F01F03012202FA03F30B42A2D052
:10074800FFF778FE401B0228E9D9032099E100BF92
:100758000010024020819010012292FAA2F2B2FA0F
:1007680082F2B74B13449B0000221A60FFF762FE27
:100778000546022393FAA3F293FAA3F293FAA3F29B
:10078800B04A516A93FAA3F3B3FA83F303F01F0351
:10079800012202FA03F30B4206D0FFF74BFE401B7F
:1007A8000228E6D903206CE1236813F0040F00F057
:1007B800A980A44BDB6913F0805F20D1A14BDA69D3
:1007C80042F08052DA61DB6903F080530193019BA8
:1007D80001259D4B1B6813F4807F12D0E368012B21
:1007E80023D073BB03F1804303F504331A6A22F064
:1007F80001021A621A6A22F004021A621AE000253B
:10080800E7E7914A136843F480731360FFF712FE19
:1008180006468D4B1B6813F4807FDFD1FFF70AFE75
:10082800801B6428F5D903202BE1864A136A43F01C
:1008380001031362E368002B3CD0FFF7FBFD06467B
:100848002EE0052B09D07F4B1A6A22F001021A62AA
:100858001A6A22F004021A62ECE77A4B1A6A42F02A
:1008680004021A621A6A42F001021A62E2E70223DB
:1008780093FAA3F3734B596A022393FAA3F3B3FAD7
:1008880083F303F01F03012202FA03F3194238D15C
:10089800FFF7D0FD801B41F28833984200F2EC80CC
:1008A800022393FAA3F293FAA3F3002BDFD0654B4C
:1008B800196AE1E7FFF7BEFD064618E0022393FA3E
:1008C800A3F3604B596A022393FAA3F3B3FA83F3B1
:1008D80003F01F03012202FA03F3194211D0FFF7B4
:1008E800A9FD801B41F28833984200F2C780022399
:1008F80093FAA3F293FAA3F3002BDFD0514B196AB2
:10090800E1E7B5BBE369002B00F0BA804D4A5268B5
:1009180002F00C02082A00F09980022B2FD04FF029
:10092800807393FAA3F3B3FA83F303F1845303F5C3
:1009380084139B0000221A60FFF77CFD04464FF0E9
:10094800007393FAA3F33F4B19684FF0007393FABF
:10095800A3F3B3FA83F303F01F03012202FA03F3AC
:1009680019426BD0FFF766FD001B0228E7D9032068
:1009780087E0344AD36923F08053D361C2E74FF04C
:10098800807393FAA3F3B3FA83F303F1845303F563
:1009980084139B0000221A60FFF74CFD05464FF0B8
:1009A800007393FAA3F3274B19684FF0007393FA77
:1009B800A3F3B3FA83F303F01F03012202FA03F34C
:1009C800194206D0FFF736FD401B0228E7D903205D
:1009D80057E01C494B6823F47413626A206A024387
:1009E80013434B604FF0807393FAA3F3B3FA83F386
:1009F80003F1845303F584139B0001221A60FFF767
:100A080019FD04464FF0007393FAA3F30D4B1968D0
:100A18004FF0007393FAA3F3B3FA83F303F01F03C1
:100A2800012202FA03F3194206D1FFF703FD001B66
:100A38000228E7D9032024E0002022E0002020E05B
:100A4800208190100010024000700040012B1AD045
:100A5800104B5B6803F48031226A914215D103F48C
:100A68007013626A934212D100200AE00120704795
:100A7800012006E0012004E0032002E0032000E05A
:100A8800002002B070BD0120FBE70120F9E701203A
:100A9800F7E700BF00100240114B5A6802F00C0340
:100AA800042B18D0082B18D1C2F383430D49C85C16
:100AB8000B4BDB6A03F00F030B49C95C12F4803F50
:100AC80005D00A4BB3FBF1F303FB00F07047084B6A
:100AD80003FB00F07047054870470648704700BFA1
:100AE800001002400C0E0008FC0D0008001BB700A7
:100AF80000093D0000127A00002800F0BE8070B5A1
:100B08000D460446614B1B6803F007038B420BD26A
:100B18005E4A136823F007030B431360136803F05E
:100B280007038B4240F0AB80236813F0020F06D016
:100B3800574A536823F0F003A1680B4353602368B6
:100B480013F0010F5AD06368012B2DD0022B40D02F
:100B5800022292FAA2F24E4A1068022292FAA2F2F5
:100B6800B2FA82F202F01F02012101FA02F21042E7
:100B780000F0878046494A6822F0030213434B601D
:100B8800FFF758FC0646424B5B6803F00C036268AB
:100B9800B3EB820F32D0FFF74DFC801B41F2883354
:100BA8009842F0D9032067E04FF4003292FAA2F29B
:100BB800374A10684FF4003292FAA2F2B2FA82F27F
:100BC80002F01F02012101FA02F20242D2D10120F1
:100BD80052E04FF0007292FAA2F22D4A10684FF0DC
:100BE800007292FAA2F2B2FA82F202F01F02012116
:100BF80001FA02F21042BDD101203DE0234B1B68EF
:100C080003F00703AB420AD9204A136823F007030D
:100C18002B431360136803F00703AB4233D12368F7
:100C280013F0040F06D01A4A536823F4E063E1680E
:100C38000B435360236813F0080F07D0144A536816
:100C480023F46053216943EAC1035360FFF724FF8B
:100C58000F4B5B6803F0F003F02292FAA2F2B2FAAB
:100C680082F2D3400B4AD35CD8400B4B18600B4B35
:100C78001868FFF79BFB002070BD0120704701201A
:100C8800FAE70120F8E70120F6E700BF002002405C
:100C9800001002401C0E000808000020040000207C
:100CA800002808DB0901C9B200F1604000F5614085
:100CB80080F80013704700F00F000901C9B2014B1A
:100CC8001954704714ED00E000B500F00700C0F1BA
:100CD800070CBCF1040F28BF4FF0040C031D062BB2
:100CE8000FD9C31E4FF0FF3E0EFA0CF021EA0001A7
:100CF80099400EFA03FE22EA0E0241EA02005DF86C
:100D080004FB0023EEE70000074AD36823F4E063FE
:100D18001B041B0C000200F4E060034343F0BF63B4
:100D280043F40033D360704700ED00E010B504468B
:100D3800054BD868C0F30220FFF7C6FF01462046DE
:100D4800FFF7AEFF10BD00BF00ED00E00138B0F1C5
:100D5800807F0BD24FF0E0235861054AF02182F8DA
:100D680023100020986107221A61704701207047FC
:100D780000ED00E0034AD2F8883043F47003C2F86B
:100D88008830704700ED00E0DFF834D0FFF7F2FF5D
:100D98000C480D490D4A002302E0D458C4500433CE
:100DA800C4188C42F9D30A4A0A4C002301E01360A4
:100DB8000432A242FBD3FFF735FAFFF7C7FAFEE782
:100DC80000300020000000200C000020340E000835
:100DD8000C0000202C000020FEE70000F8B500BF42
:100DE800F8BC08BC9E467047F8B500BFF8BC08BC04
:040DF8009E4670475C
:100DFC000102030405060708090A0B0C0D0E0F105F
:100E0C0002030405060708090A0B0C0D0E0F10103F
:100E1C00000000000000000001020304060708099E
:040E2C00A102000817
:040E30007D02000837
:0C0E3400010000001000000000127A0015
:0400000508000D9151
:00000001FF
