:020000040800F2
:1000000000300020C9290008D1060008D3060008E6
:10001000D5060008D7060008D90600080000000031
:10002000000000000000000000000000DB060008E7
:10003000DD06000800000000DF060008E1060008F9
:10004000192A0008192A0008192A0008192A000884
:10005000192A0008192A0008192A0008192A000874
:10006000192A0008192A0008192A0008192A000864
:10007000192A0008192A0008192A0008192A000854
:10008000192A0008192A0008192A0008192A000844
:10009000192A0008192A0008192A0008192A000834
:1000A000192A0008192A0008192A0008192A000824
:1000B000192A0008192A000800000000192A00085F
:1000C000192A00080000000000000000192A00089A
:1000D00000000000192A0008192A0008192A00083F
:1000E000192A0008192A000800000000000000007A
:1000F0000000000000000000000000000000000000
:1001000000000000000000000000000000000000EF
:100110000000000000000000192A0008192A000849
:1001200000000000000000000000000000000000CF
:1001300000000000000000000000000000000000BF
:10014000192A0008192A000800000000192A0008CE
:10015000192A0008192A0008192A0008192A000873
:10016000192A0008192A00080000000000000000F9
:10017000000000000000000000000000000000007F
:0801800000000000192A00082C
:10018800830730B547D0541E002A3ED0CAB2034672
:1001980001E0013C39D303F8012B9D07F9D1032C69
:1001A8002CD9CDB205EB05250F2C05EB054535D926
:1001B800A4F1100222F00F0C03F1100EE6444FEAEE
:1001C800121C1A46156055609560D560103272454C
:1001D800F8D10CF1010214F00C0F03EB021204F039
:1001E8000F0C13D0ACF1040323F0030304331344BE
:1001F80042F8045B9A42FBD10CF003042CB1C9B25B
:100208001C4403F8011B9C42FBD130BD64461346D5
:10021800002CF4D1F9E703461446C0E71A46A44671
:10022800E0E700BF70B50F4B0F4DAB42A3EB0506DF
:1002380007D0B610002455F8043B01349847A6426D
:10024800F9D802F0E7FB094D094B5E1BAB424FEAB8
:10025800A60606D0002455F8043B01349847A64268
:10026800F9D870BD6C2A00086C2A00086C2A0008AE
:10027800702A000810B5054C237833B9044B13B124
:100288000448AFF300800123237010BD0C00002048
:10029800000000001C2A000808B5034B1BB10349E5
:1002A8000348AFF3008008BD0000000010000020E4
:1002B8001C2A000830B589B00024039404940594DE
:1002C80006940794174B5A6942F480025A615A6996
:1002D80002F480020092009A5A6942F400325A618C
:1002E8005A6902F400320192019A5A6942F4802252
:1002F8005A615B6903F480230293029B0A4D2246EC
:100308004FF44051284601F043FD4FF44053039306
:10031800012304930594069403A9284601F05AFC86
:1003280009B030BD001002400004004872B6FEE774
:1003380000B58BB0002307930893099301930293A8
:1003480003930493059306931A484FF0A042026062
:10035800436083600361437680F82030C3620122E2
:100368008262C360C26180F8303004224261037641
:10037800436300F077FBB0B90023079307A90D4842
:1003880000F032FE88B901230193029304930023FD
:1003980003930593069301A9064800F06DFC30B954
:1003A8000BB05DF804FBFFF7C1FFFFF7BFFFFFF7D6
:1003B800BDFF00BFA002002000B587B00023009356
:1003C800019302930393049305931548154A026019
:1003D800436083600361437680F82030C362012262
:1003E8008262C360C26180F83030042242610376C1
:1003F800436300F037FB78B901230093019303931B
:1004080000230293049305936946054800F034FCE1
:1004180020B907B05DF804FBFFF788FFFFF786FFF8
:10042800500200200001005010B5A2B000241E9414
:100438001F94209421945422214609A8FFF7A0FE76
:100448002022214601A8FFF79BFE3448344B036065
:100458004460846001F0B0FF002851D14FF6FD736D
:100468001E9300211F9105232093082321931EAA80
:100478002A4802F00BF8002844D1002109910A917A
:100488000B910C9101230D930E910F9110911191E5
:100498001291139114911591169117911891199120
:1004A8001A911B911C911D9109AA1C4802F007F88A
:1004B80050BB09AA0121194802F001F830BB0021FC
:1004C8000191029103910491059106910791089178
:1004D80001AB0222114802F02AF8C8B901AB082280
:1004E80001210E4802F023F8A0B91EAA01210B48E9
:1004F80001F0CCFF80B9094800F0E8F922B010BD3E
:10050800FFF714FFFFF712FFFFF710FFFFF70EFFCB
:10051800FFF70CFFFFF70AFFFFF708FF380100207D
:100528000074014008B50B480B4B03604FF41643A9
:10053800436000238360C36003610C2242618361CE
:10054800C3610362436202F000FA00B908BDFFF715
:10055800EDFE00BFB00000200038014008B50B4890
:100568000B4B03601023436000238360C360036167
:100578004361037643768376C3760377437701F046
:1005880077FC00B908BDFFF7D1FE00BF28020020A4
:100598000064004000B585B00023019302930393E3
:1005A8000A480B4B036001F009FD58B9002201927B
:1005B8000223039301A9054801F012FD20B905B0F3
:1005C8005DF804FBFFF7B2FEFFF7B0FE140200204F
:1005D8000098004008B50B480B4B03604FF41643D6
:1005E800436000238360C36003610C22426183611E
:1005F800C3610362436202F0A8F900B908BDFFF7BE
:1006080095FE00BF280000200048004000B597B0C4
:10061800282200210CA8FFF7B3FD002307930893B5
:1006280009930A930B930093019302930393049302
:100638000593069301220C924FF480330D93109288
:100648000222139214934FF4801315930CA800F010
:10065800A1FDE8B90F23079302210891002309930C
:100668004FF480620A920B9307A801F0DBF888B96F
:1006780044F281030093002302934FF480720492A2
:100688000693684601F0D4F930B917B05DF804FB59
:10069800FFF74CFEFFF74AFEFFF748FE08B500F0EB
:1006A80055FDFFF7B3FFFFF705FEFFF741FEFFF724
:1006B80083FEFFF7B9FEFFF735FFFFF74FFFFFF7A0
:1006C80069FFFFF787FFFEE7FEE7FEE7FEE7FEE7C5
:1006D800FEE770477047704708B500F049FD08BD50
:1006E80082B00A4B9A6942F001029A619A6902F053
:1006F80001020092009ADA6942F08052DA61DB69FD
:1007080003F080530193019B02B070470010024030
:1007180000B58BB0002305930693079308930993BC
:100728000368B3F1A04F05D0274A934226D00BB0F7
:100738005DF804FB254A136801331360012B12D0BE
:10074800234B5A6942F400325A615B6903F400335F
:100758000293029B03230593069305A94FF090404B
:1007680001F038FAE3E71A4B5A6942F080525A61AD
:100778005B6903F080530193019BE1E7134A136817
:1007880001331360012B13D0114B5A6942F4003224
:100798005A615B6903F400330493049B3023059387
:1007A8000323069305A94FF0904001F013FABEE722
:1007B800074B5A6942F080525A615B6903F08053D3
:1007C8000393039BE0E700BF00010050F002002004
:1007D8000010024000B589B00023039304930593E9
:1007E800069307930268144B9A4202D009B05DF849
:1007F80004FB03F5D633DA6942F00072DA61DA698C
:1008080002F000720192019A5A6942F480225A61F8
:100818005B6903F480230293029B4FF440730393B4
:1008280002230493032306930923079303A9034888
:1008380001F0D0F9DAE700BF006400400004004886
:1008480000B589B000230393049305930693079397
:100858000268124B9A4202D009B05DF804FB03F516
:10086800BC33DA6942F08062DA61DA6902F08062E8
:100878000192019A5A6942F400325A615B6903F4A1
:1008880000330293029B402303930323049303A999
:100898004FF0904001F09EF9DEE700BF009800405D
:1008A8000268094B9A4200D0704782B003F51C4396
:1008B8009A6942F000529A619B6903F000530193D0
:1008C800019B02B0704700BF0074014000B587B0BB
:1008D8000023019302930393049305930268104B3A
:1008E8009A4202D007B05DF804FB03F51C435A692D
:1008F80042F400325A615B6903F400330093009BB1
:100908004FF42063019302230293032304930D23DE
:10091800059301A94FF0904001F05CF9E2E700BFB0
:100928000074014000B58BB000230593069307932C
:10093800089309930368254A934205D0244A9342B1
:1009480022D00BB05DF804FB224B9A6942F4804236
:100958009A619A6902F480420192019A5A6942F4B2
:1009680080225A615B6903F480230293029BC023AF
:10097800059302230693032308930723099305A9E4
:10098800154801F027F9DCE7124BDA6942F48022B6
:10099800DA61DA6902F480220392039A5A6942F40E
:1009A80080225A615B6903F480230493049B4FF40B
:1009B80040630593022306930323089307230993AF
:1009C80005A9054801F006F9BBE700BF003801405A
:1009D80000480040001002400004004838B5026892
:1009E800936803F00303012B01D0002038BD0446AF
:1009F800136813F0010F33D0936803F00D03012B34
:100A080009D0036C43F010030364436C43F0010303
:100A180043640120EAE7936843F0020393600368A4
:100A280003221A6000F0B0FB054623689B6813F0A8
:100A3800010F13D000F0A8FB401B0228F5D923684A
:100A48009B6813F0010FF0D0236C43F0100323646C
:100A5800636C43F0010363640120C7E70020C5E726
:100A68000020C3E730B597B000230193002800F0B9
:100A7800F7800446036C13F0100F52D1036CABB12E
:100A8800002023689A6812F0805F03D09B6813F0F7
:100A9800005F47D0236C23F0120343F01003236454
:100AA800636C43F00103636401203BE04364C36467
:100AB800836480F83C30FFF72BFE23689B6813F0B3
:100AC800805F01D00020DCE72046FFF787FF236C1A
:100AD80013F0100FD5D10028D3D1236C23F48853F9
:100AE80023F0020343F0020323642268936823F08F
:100AF800405393602268936843F080539360594B46
:100B08001B68594AA2FB03239B0C03EB83035B007E
:100B1800019302E0019B013B0193019B002BF9D15A
:100B2800AFE70020236C13F0100F40F090800028EE
:100B380040F08D802368996811F0040140F08780A7
:100B4800226C22F4817242F002022264B3F1A04FB7
:100B580054D04FF0A04202929A6802F00302012A90
:100B68004FD0029B23B19A6802F00302012A4DD0AC
:100B78003E4A936823F4403365682B439360627E52
:100B88005303656B012D01D04FF480510B43E1688D
:100B98000B43A1680B4394F8201001293BD0A26AAB
:100BA800012A02D0E16A0A4313432268916811F0CE
:100BB8000C0F0CD1D16821F4804121F00201D160E1
:100BC800217E94F83020520042EA81321343216892
:100BD800CD68274A2A401A43CA602369012B2DD0C1
:100BE8002268136B23F00F03136300236364236CE1
:100BF80023F0030343F0010323642FE01D4A02920C
:100C0800AAE71B6813F0010FB9D1AAE71B6813F014
:100C1800010FB4D1ACE732B9626A013A43EA424201
:100C280042F48033BBE7226C22F0220242F0200219
:100C38002264626C42F001026264B0E721680B6BC7
:100C480023F00F03E269013A13430B63CDE7236CEA
:100C580023F0120343F010032364012017B030BDC2
:100C68000120FBE70800002083DE1B43000300503F
:100C780007C0F0FF0001005030B496B00022019286
:100C880090F83C20012A00F0A5810346012280F853
:100C98003C200068826812F0040F40F090814A6896
:100CA800042A35D8046B02EB420252004FF01F0CA5
:100CB8000CFA02FC24EA0C0C0C6894404CEA04047C
:100CC80004631868826812F00C0F6BD10A68092A4D
:100CD8004FD9846902EB42021E3A4FF0070C0CFA16
:100CE80002FC24EA0C048D6805FA02F222438261B0
:100CF80048691C68E268C2F3C102520090400A6960
:100D0800013A032A00F28D80DFE802F0426A75801A
:100D1800092A10D8446B02EB420252001E3A4FF0E7
:100D28001F0C0CFA02FC24EA0C040D6805FA02F206
:100D380022434263C5E70E2A0DD8846B02EB4202B8
:100D480052003C3A1F25954024EA05040D68954059
:100D58002C438463B5E7C46B02EB420252005A3A53
:100D68001F25954024EA05040D6895402C43C4636B
:100D7800A7E7446902EB42024FF0070C0CFA02FCA9
:100D880024EA0C048D6805FA02F222434261AFE7B7
:100D9800256E914A2A400D6840EA85652A4342F04B
:100DA800004222661868826802F00302012A68D0AD
:100DB800CA68012A6BD0D0F8B02001240D68AC4075
:100DC80022EA0402C0F8B0200A68102A00F08680DF
:100DD800112A00F0A480122A00F0A7800020F3E076
:100DE800656E7D4A2A400D6840EA85652A4342F0CF
:100DF80000426266D6E7A56E774A2A400D6840EA47
:100E080085652A4342F00042A266CBE7E26E724D46
:100E180015400A6840EA8262154345F00045E566D8
:100E2800C0E7226E02F0F8420868B2EB806F03D187
:100E3800226E22F0004222661A68506E00F0F840D6
:100E48000C68B0EB846F03D1506E20F00040506600
:100E58001A68906E00F0F8400C68B0EB846F03D10C
:100E6800906E20F0004090661A68D06E00F0F8404E
:100E78000C68B0EB846F95D1D06E20F00040D0663E
:100E880090E7026812F0010F92D000209CE0D0F8A1
:100E9800B0200D680124AC402243C0F8B0200A6895
:100EA800092A0DD91D68A86902EB42021B3A0724DA
:100EB800944020EA04008C6894402043A86183E7AA
:100EC8001D686869013202EB42020724944020EA57
:100ED80004008C6894402043686175E73F4989683D
:100EE80011F4000F7FF474AF1868B0F1A04F23D04D
:100EF8004FF0A0410291816801F0030101291ED041
:100F0800029921B18C6804F00304012C21D0102A25
:100F180024D0112A42D0122A4AD0002054E02F4966
:100F2800896811F0807FDFD055E72C49896811F472
:100F3800800FD9D0002047E029490291DBE70168FA
:100F480011F0010FDCD01A6C42F020021A64012063
:100F58003AE0096811F0010FF5D1D8E7B0F1A04FD8
:100F6800D7D11E498A6842F400028A601D4A126875
:100F7800A1F14E61A1F58421A1F27D41A1FB0212EC
:100F8800920C02EB82025200019202E0019A013AAD
:100F98000192019A002AF9D1002015E0B0F1A04F82
:100FA800B9D10E498A6842F080728A6000200BE04D
:100FB8000A498A6842F480028A60002004E01A6CB8
:100FC80042F020021A640120002283F83C2016B067
:100FD80030BC70470220FAE700F0FF83000300509E
:100FE800000100500800002030B494B003460268A5
:100FF800B2F1A04F3DD04FF0A040009000980028DB
:1010080076D093F83CC0BCF1010F73D04FF0010CBF
:1010180083F83CC0926812F0040F5ED1826812F027
:10102800040F5AD10A68002A32D0334CA26822F43D
:10103800604293F830C04D6845EA4C3C42EA0C02E5
:10104800A2601C68A26802F00302012A14D0826818
:1010580002F00302012A15D0274CA26822F471621B
:1010680022F00F020868896801430A43A260002041
:1010780038E022480090C1E7226812F0010FE6D05C
:1010880000202FE0026812F0010FE5D0002029E0CF
:1010980019498A6822F460428A6019688A6802F0ED
:1010A8000302012A0DD0826802F00302012A0ED041
:1010B80011498A6822F4716222F00F028A600020C6
:1010C80010E00A6812F0010FEDD000200AE0026873
:1010D80012F0010FECD0002004E01A6C42F020025C
:1010E8001A640120002283F83C2014B030BC7047F9
:1010F8000120FAE70220F8E7000300500001005041
:1011080010B504460E4B1A784FF47A73B3FBF2F31A
:101118000C4A1068B0FBF3F000F096FE68B90F2C8B
:1011280001D901200AE0002221464FF0FF3000F0EB
:101138007BFE054B1C60002000E0012010BD00BFB5
:1011480000000020080000200400002008B5074A1D
:10115800136843F010031360032000F053FE0F20C0
:10116800FFF7CEFFFFF7BCFA002008BD00200240C1
:10117800034A1168034B1B780B441360704700BF88
:10118800F402002000000020014B1868704700BFDF
:10119800F4020020002800F0FF8270B582B00446F7
:1011A800036813F0010F3BD0B44B5B6803F00C03EA
:1011B800042B1ED0B14B5B6803F00C03082B13D033
:1011C8006368B3F5803F68D0002B40F0928003F14C
:1011D800804303F504331A6822F480321A601A68CF
:1011E80022F480221A605DE0A44B5B6813F4803F10
:1011F800E6D04FF4003393FAA3F3A04B19684FF4E9
:10120800003393FAA3F3B3FA83F303F01F03012225
:1012180002FA03F30B4203D06368002B00F0BE828E
:10122800236813F0020F00F0C480944B5B6813F03E
:101238000C0F00F09C80914B5B6803F00C03082BAB
:1012480000F08F802369002B00F0F080012292FAD1
:10125800A2F3B3FA83F303F1845303F584139B00D9
:101268001A60FFF791FF0546022393FAA3F3834B15
:101278001968022393FAA3F3B3FA83F303F01F0365
:10128800012202FA03F30B4240F0C280FFF77CFF11
:10129800401B0228E8D9032089E2784A136843F4FE
:1012A80080331360754AD36A23F00F03A1680B4398
:1012B800D3626368002B36D0FFF766FF05464FF40C
:1012C800003393FAA3F36D4B19684FF4003393FA84
:1012D800A3F3B3FA83F303F01F03012202FA03F323
:1012E8000B429DD1FFF750FF401B6428E7D903202C
:1012F8005DE2B3F5A02F09D0604B1A6822F4803262
:101308001A601A6822F480221A60CBE703F180433E
:10131800A3F53C331A6842F480221A601A6842F432
:1013280080321A60BEE7FFF72FFF05464FF40033FF
:1013380093FAA3F3514B19684FF4003393FAA3F3CC
:10134800B3FA83F303F01F03012202FA03F30B42FB
:101358003FF466AFFFF718FF401B6428E6D9032067
:1013680025E2464B5B6813F4803F7FF46BAF0223A2
:1013780093FAA3F3414B1968022393FAA3F3B3FA40
:1013880083F303F01F03012202FA03F30B4203D095
:101398002369934240F004823848036823F0F80335
:1013A8006169F82292FAA2F2B2FA82F291400B43F2
:1013B8000360236813F0080F00F08C80A369002BEA
:1013C80060D0012191FAA1F2B2FA82F22C4B1344B7
:1013D8009B001960FFF7D8FE0546022393FAA3F293
:1013E80093FAA3F293FAA3F2244A516A93FAA3F365
:1013F800B3FA83F303F01F03012202FA03F30B424B
:1014080068D1FFF7C1FE401B0228E6D90320CEE1D0
:101418001A48036823F0F8036169F82292FAA2F2E5
:10142800B2FA82F291400B430360C2E7012393FAB8
:10143800A3F3B3FA83F303F1845303F584139B00F6
:1014480000221A60FFF7A0FE0546022393FAA3F3D1
:101458000A4B1968022393FAA3F3B3FA83F303F050
:101468001F03012202FA03F30B42A2D0FFF78CFEFE
:10147800401B0228E9D9032099E100BF001002406F
:1014880020819010012292FAA2F2B2FA82F2B74BAE
:1014980013449B0000221A60FFF776FE05460223DC
:1014A80093FAA3F293FAA3F293FAA3F2B04A516A19
:1014B80093FAA3F3B3FA83F303F01F03012202FAAA
:1014C80003F30B4206D0FFF75FFE401B0228E6D964
:1014D80003206CE1236813F0040F00F0A980A44BEB
:1014E800DB6913F0805F20D1A14BDA6942F08052AA
:1014F800DA61DB6903F080530193019B01259D4B61
:101508001B6813F4807F12D0E368012B23D073BBD0
:1015180003F1804303F504331A6A22F001021A62C8
:101528001A6A22F004021A621AE00025E7E7914AD3
:10153800136843F480731360FFF726FE06468D4B4D
:101548001B6813F4807FDFD1FFF71EFE801B642821
:10155800F5D903202BE1864A136A43F0010313628D
:10156800E368002B3CD0FFF70FFE06462EE0052B64
:1015780009D07F4B1A6A22F001021A621A6A22F015
:1015880004021A62ECE77A4B1A6A42F004021A6201
:101598001A6A42F001021A62E2E7022393FAA3F3FD
:1015A800734B596A022393FAA3F3B3FA83F303F054
:1015B8001F03012202FA03F3194238D1FFF7E4FDB1
:1015C800801B41F28833984200F2EC80022393FAA0
:1015D800A3F293FAA3F3002BDFD0654B196AE1E776
:1015E800FFF7D2FD064618E0022393FAA3F3604BF7
:1015F800596A022393FAA3F3B3FA83F303F01F03A0
:10160800012202FA03F3194211D0FFF7BDFD801B36
:1016180041F28833984200F2C780022393FAA3F27A
:1016280093FAA3F3002BDFD0514B196AE1E7B5BB5E
:10163800E369002B00F0BA804D4A526802F00C02B0
:10164800082A00F09980022B2FD04FF0807393FA6C
:10165800A3F3B3FA83F303F1845303F584139B00D4
:1016680000221A60FFF790FD04464FF0007393FACA
:10167800A3F33F4B19684FF0007393FAA3F3B3FA3F
:1016880083F303F01F03012202FA03F319426BD01C
:10169800FFF77AFD001B0228E7D9032087E0344AC8
:1016A800D36923F08053D361C2E74FF0807393FA74
:1016B800A3F3B3FA83F303F1845303F584139B0074
:1016C80000221A60FFF760FD05464FF0007393FA99
:1016D800A3F3274B19684FF0007393FAA3F3B3FAF7
:1016E80083F303F01F03012202FA03F3194206D021
:1016F800FFF74AFD401B0228E7D9032057E01C49A1
:101708004B6823F47413626A206A024313434B60E4
:101718004FF0807393FAA3F3B3FA83F303F184537E
:1017280003F584139B0001221A60FFF72DFD044680
:101738004FF0007393FAA3F30D4B19684FF0007341
:1017480093FAA3F3B3FA83F303F01F03012202FA17
:1017580003F3194206D1FFF717FD001B0228E7D94A
:10176800032024E0002022E0002020E020819010C7
:101778000010024000700040012B1AD0104B5B682B
:1017880003F48031226A914215D103F47013626A1E
:10179800934212D100200AE001207047012006E0A0
:1017A800012004E0032002E0032000E0002002B052
:1017B80070BD0120FBE70120F9E70120F7E700BF32
:1017C80000100240114B5A6802F00C03042B18D089
:1017D800082B18D1C2F383430D49C85C0B4BDB6A55
:1017E80003F00F030B49C95C12F4803F05D00A4B84
:1017F800B3FBF1F303FB00F07047084B03FB00F069
:101808007047054870470648704700BF00100240FF
:10181800442A0008342A0008001BB70000093D00CC
:1018280000127A00002800F0BE8070B50D4604460C
:10183800614B1B6803F007038B420BD25E4A1368A7
:1018480023F007030B431360136803F007038B426D
:1018580040F0AB80236813F0020F06D0574A536854
:1018680023F0F003A1680B435360236813F0010FC2
:101878005AD06368012B2DD0022B40D0022292FA55
:10188800A2F24E4A1068022292FAA2F2B2FA82F248
:1018980002F01F02012101FA02F2104200F08780D3
:1018A80046494A6822F0030213434B60FFF76CFC79
:1018B8000646424B5B6803F00C036268B3EB820F89
:1018C80032D0FFF761FC801B41F288339842F0D98F
:1018D800032067E04FF4003292FAA2F2374A106808
:1018E8004FF4003292FAA2F2B2FA82F202F01F0228
:1018F800012101FA02F20242D2D1012052E04FF056
:10190800007292FAA2F22D4A10684FF0007292FA11
:10191800A2F2B2FA82F202F01F02012101FA02F2E7
:101928001042BDD101203DE0234B1B6803F00703A3
:10193800AB420AD9204A136823F007032B431360EC
:10194800136803F00703AB4233D1236813F0040F85
:1019580006D01A4A536823F4E063E1680B435360E6
:10196800236813F0080F07D0144A536823F4605310
:10197800216943EAC1035360FFF724FF0F4B5B68FB
:1019880003F0F003F02292FAA2F2B2FA82F2D34004
:101998000B4AD35CD8400B4B18600B4B1868FFF709
:1019A800AFFB002070BD012070470120FAE701203D
:1019B800F8E70120F6E700BF0020024000100240CF
:1019C8005C2A00080800002004000020014B186869
:1019D800704700BF0800002008B5FFF7F7FF074B66
:1019E8005B6803F4E0634FF4E06292FAA2F2B2FAA1
:1019F80082F2D340024AD35CD84008BD00100240AE
:101A0800542A000808B5FFF7E1FF074B5B6803F4A9
:101A180060534FF4605292FAA2F2B2FA82F2D340C3
:101A2800024AD35CD84008BD00100240542A00087E
:101A3800F0B583B00446036813F4803F44D0624B8A
:101A4800DB6913F0805F78D15F4BDA6942F080522E
:101A5800DA61DB6903F080530193019B01255B4B3D
:101A68001B6813F4807F6AD0574B1B6A13F44073CA
:101A780021D0626802F440729A421CD05248016A2E
:101A880021F440764FF4803393FAA3F2B2FA82F24B
:101A98004F4F3A4492004FF0010CC2F800C093FA3D
:101AA800A3F3B3FA83F33B449B0000221A60066257
:101AB80011F0010F57D1444A136A23F44073616847
:101AC8000B431362002D74D1236813F0010F06D065
:101AD8003D4A136B23F00303A1680B431363236888
:101AE80013F0200F06D0384A136B23F01003E16877
:101AF8000B431363236813F0800F06D0324AD36A6E
:101B080023F4F87321690B43D362236813F4805FCD
:101B180006D02D4A136B23F4807361690B4313635A
:101B2800236813F4804F4BD0274A136B23F4805358
:101B3800A1690B431363002043E000258FE7234A84
:101B4800136843F480731360FFF71EFB06461F4BB0
:101B58001B6813F4807F87D1FFF716FB801B64286E
:101B6800F5D903202DE0FFF70FFB064617E0022307
:101B780093FAA3F3144B596A022393FAA3F3B3FA23
:101B880083F303F01F03012202FA03F30B4292D1FD
:101B9800FFF7FAFA801B41F2883398420ED80223E5
:101BA80093FAA3F293FAA3F3002BE0D0064B196A39
:101BB800E2E7D36923F08053D36185E7032000E08F
:101BC800002003B0F0BD00BF0010024000700040CC
:101BD80000819010F0B583B0002362E085685E0054
:101BE8000324B44025EA0405CC68B4402C4384603F
:101BF800456825EA0C054C68C4F300149C402C4346
:101C080044605FE0DD08083550F8254003F0070C14
:101C18004FEA8C0C4FF00F0E0EFA0CFE24EA0E0E53
:101C28000C6904FA0CF444EA0E0440F8254060E01C
:101C3800032400E0002404FA0EF42C430CF1020CF7
:101C48004F4D45F82C404F4CA568D44325EA020671
:101C58004F6817F4801F01D042EA0506494DAE606F
:101C6800ED6804EA05064F6817F4001F01D042EA40
:101C78000506444DEE606D6804EA05064F6817F4E2
:101C8800003F01D042EA05063E4D6E602D682C40AB
:101C98004E6816F4803F01D042EA0504394A1460C0
:101CA80001330A6832FA03F468D04FF0010C0CFAD9
:101CB80003FC1CEA0202F3D04C6804F00304013C64
:101CC800012C8BD94C6804F00304032C0CD0C46895
:101CD8005D004FF0030C0CFA05FC24EA0C0C8C6830
:101CE800AC4044EA0C04C4604C6804F00304022CC1
:101CF80088D004684FEA430E4FF0030C0CFA0EFC30
:101D080024EA0C0C4C6804F0030404FA0EF444EAC8
:101D18000C0404604C6814F4403FC1D01A4CA56907
:101D280045F00105A561A46904F001040194019C32
:101D38004FEA930C0CF10205114C54F8255003F0AE
:101D4800030E4FEA8E0E0F2404FA0EF425EA04055A
:101D5800B0F1904F3FF46EAF0C4CA0420AD004F59E
:101D68008064A04208D004F58064A0423FF460AFCC
:101D7800052460E701245EE702245CE703B0F0BDB8
:101D88000000014000040140001002400004004827
:101D98000AB181617047816270470000002808DB42
:101DA8000901C9B200F1604000F5614080F80013F4
:101DB800704700F00F000901C9B2014B1954704770
:101DC80014ED00E000B500F00700C0F1070CBCF10D
:101DD800040F28BF4FF0040C031D062B0FD9C31E98
:101DE8004FF0FF3E0EFA0CF021EA000199400EFA7E
:101DF80003FE22EA0E0241EA02005DF804FB00231A
:101E0800EEE70000074AD36823F4E0631B041B0CC9
:101E1800000200F4E060034343F0BF6343F400337F
:101E2800D360704700ED00E010B50446054BD86854
:101E3800C0F30220FFF7C6FF01462046FFF7AEFFBA
:101E480010BD00BF00ED00E00138B0F1807F0BD27B
:101E58004FF0E0235861054AF02182F82310002052
:101E6800986107221A6170470120704700ED00E071
:101E7800002800F0A18038B5044690F82030D3B18E
:101E88002268136843F001031360FFF77DF90546E4
:101E980023685A6812F0010F10D1FFF775F9401B3B
:101EA8000A28F5D9636A43F400336362052384F88A
:101EB8002030012038BDFEF78DFCE1E71A6822F0DA
:101EC80002021A60FFF760F9054623685A6812F0A3
:101ED800020F0DD0FFF758F9401B0A28F5D9636A9D
:101EE80043F400336362052384F820300120E1E7DE
:101EF800227E012A3DD01A6822F080021A60637E91
:101F0800012B3BD02268136823F040031360A37EA3
:101F1800012B39D02268136823F020031360E37E75
:101F2800012B37D02268136843F010031360237F16
:101F3800012B35D02268136823F008031360637FF0
:101F4800012B33D02268136823F004031360A368BD
:101F5800E268134322691343626913436268013AD2
:101F680021681343CB6100206062012384F820308C
:101F7800A0E71A6842F080021A60C0E72268136876
:101F880043F040031360C2E72268136843F020035C
:101F98001360C4E72268136823F010031360C6E7D0
:101FA8002268136843F008031360C8E722681368BF
:101FB80043F004031360CAE70120704770B110B5FD
:101FC8000446037933B102232371002020610123E1
:101FD800237110BD4371FEF733FCF4E7012070470D
:101FE80010B58C4604684179012930D00346012197
:101FF8004171022101712168164884421AD040F6C5
:10200800FE70904021EA000EDCF80010DCF80800B1
:102018000143914041EA0E0121601C682168C020FB
:1020280000FA02F221EA0202226001221A7100205B
:10203800587110BD002AE2D140F6FE70904021EAA6
:10204800000EDCF80000DCF804100143E1E7022090
:10205800EFE700BF0074004010B40468226822F063
:1020680007028B68134323F01803CA681A432260D7
:1020780003680A685A6103684A689A615DF8044B04
:10208800704730B5046801F1010C4FEACC1C54F8D4
:102098000C3023F0070E936843EA0E0323F018036D
:1020A800D5682B4344F80C300368146803EBC1135C
:1020B800C3F894400368526803EBC113C3F898202F
:1020C80030BD30B404682268D4F8A05322F020024E
:1020D8004B69134323F400628B69134323F4806232
:1020E800CB69134323F0C0620B6A134323F00062E9
:1020F8004B6A134323F040438A6A43EA820323F07E
:1021080000530A6B1A4325F48035CB6A1D432260BD
:102118000368C3F8A05330BC70472DE9F041056847
:102128004B1CDB01EC5824F07044EC500668F35863
:1021380006EBC114D4F8E880D4F8E440D6F8A053EC
:1021480023F0200C536943EA0C0323F4006C9369D1
:1021580043EA0C0323F4806CD36943EA0C0323F0AD
:10216800C06C136A43EA0C0323F0006C536A43EA19
:102178000C0323F0704C936A43EA0C0323F40033F6
:10218800176BB7F1005F32D023F04003D2F834C0A8
:102198004CEA030323F48023176D47EA030E2EF05D
:1021A800FC7E936C43EA0E0E28F01F07936B03F036
:1021B8001F033B4323F00043D76B3B43BCF1000FA5
:1021C80003D124F48074176C3C43576CB7F5606FE7
:1021D80010D0B7F5F05F0DD024F4F0543C43D76C21
:1021E800042910D8DFE801F00A272D33390043F419
:1021F8000033C9E7BCF1400FF1D1EDE725F4003514
:10220800D26A45EA42054A1CD20146F802E0026851
:1022180002EBC112C2F8E830036803EBC113C3F83C
:10222800E440036803EBC113C3F8D4700368C3F830
:10223800A053BDE8F08125F48025D26A45EA8205DD
:10224800E1E725F40025D26A45EAC205DBE725F473
:102258008015D26A45EA0215D5E725F40015D26A39
:1022680045EA4215CFE70000F0B4076807EBC11450
:10227800D4F8E460D4F8B850202A33D8022A03D21C
:10228800012A4BD000220BE0023A012404FA02F2A0
:102298002C4C224233D144F2040422423ED1002283
:1022A800FE24944026EA04061C68944044EA060C7E
:1022B800DC68944044EA0C041E6906FA02FC4CEA05
:1022C800040C5C69944044EA0C0C9C69944044EA10
:1022D8000C04082E2FD0036803EBC113C3F8E440A5
:1022E800F0BC7047B2F5807F18D004D9B2F5007FF2
:1022F80005D00022D4E7402A10D0802A0CD15A6891
:1023080007EBC117C7F8C42002689C6802EBC1122A
:10231800C2F8C8401022C3E70022C1E75A6807EB99
:10232800C117C7F8BC2002689C6802EBC112C2F84A
:10233800C0400022B4E715F0022FCCD1DB699340EE
:102348001C43C8E741000040052933D8DFE801F005
:102358000B131B232B030268D2F8843343F00103C9
:10236800C2F8843370470268D2F8843343F002031A
:10237800C2F8843370470268D2F8843343F0040308
:10238800C2F8843370470268D2F8843343F00803F4
:10239800C2F8843370470268D2F8843343F01003DC
:1023A800C2F8843370470268D2F8843343F02003BC
:1023B800C2F8843370470000002862D010B582B09C
:1023C8000446022380F8C1300023C0F8C430C0F8A6
:1023D800C830C0F8CC30C0F8D030C0F8D430C0F81D
:1023E800D830836813F0010F12D00268264B9A4246
:1023F80025D021680A6822F44042236903F4404347
:10240800134323F44053626902F440521A430A60AA
:102418002046FEF745FAA36813F0020F08D021689A
:102428000A6822F44072E36803F4407313430B60B4
:10243800012384F8C130002384F8C0301CE003F580
:102448001C439A6942F000529A619B6903F0005359
:102458000193019BCDE7C3EBC30204EB8202002189
:102468009161D161116251629162C3EBC30204EBC5
:10247800820211630133DBB2052BECD9002002B0D4
:1024880010BD0120704700BF0074014010B504461C
:1024980090F8C100C0B202280BD0022384F8C130E2
:1024A800052907D02046FFF7ECFD012384F8C13049
:1024B800002010BD11462046FFF7CEFDF5E770B5A8
:1024C800044690F8C100C0B2022828D00E4615462E
:1024D80094F8C030012B28D0012384F8C03002239F
:1024E80084F8C13005291BD02046FFF716FE2A685C
:1024F800C6EBC60304EB83031A626A685A62AA68C9
:102508009A62EA68DA622A691A6331462046FFF756
:102518001BFF012384F8C130002084F8C00070BD7F
:1025280011462046FFF7CDFDE1E70220F7E738B571
:10253800044690F8C100C0B2022811D094F8C00037
:1025480001280ED0012584F8C050022084F8C1006B
:102558002046FFF789FE84F8C150002084F8C000A7
:1025680038BD0220FCE7026852E8003F23F490736C
:1025780042E800310029F6D1026802F1080353E865
:10258800003F23F00103083242E800310029F3D16B
:10259800036E012B06D02023C0F880300023036689
:1025A80083667047026852E8003F23F0100342E850
:1025B80000310029F6D1EEE710B5044683680269B8
:1025C800134342691343C2691343016808684E4ABA
:1025D80002401A430A602268536823F44053E168B2
:1025E8000B435360A269236A1A4321688B6823F45A
:1025F800306313438B602368444A934214D0444A9F
:10260800934227D002F5806293421FD01023E069DD
:10261800B0F5004F20D0082B70D8DFE803F04A60EF
:10262800486F636F6F6F66003A4B1B6B03F00303D1
:10263800032B09D8DFE803F00204060C0023E6E7C1
:102648000423E4E70823E2E71023E0E70023DEE7BA
:102658000223DCE70023DAE7082B49D8DFE803F098
:10266800051F2548224848480900FFF7B5F9002802
:1026780040D06268530803EB4003B3FBF2F3A3F1C5
:1026880010014FF6EF72914236D89AB222F00F023B
:10269800C3F3420313432268D36000201BE0FFF713
:1026A800B1F9E4E7FFF78EF8E1E71B48E1E71A48DC
:1026B80002E0FFF791F918B3636800EB5300B0FB31
:1026C800F3F0A0F110024FF6EF739A421AD823687C
:1026D80080B2D86000200023A366E36610BDFFF730
:1026E80091F9E8E7FFF76EF8E5E74FF40040E3E714
:1026F8000120F0E70020EEE70120ECE70120EAE7FF
:102708000020E8E70120E6E7F369FFEF0038014021
:10271800004400400010024000127A00436A13F09F
:10272800080F06D00268536823F40043416B0B433B
:102738005360436A13F0010F06D00268536823F40C
:102748000033816A0B435360436A13F0020F06D0CB
:102758000268536823F48033C16A0B435360436AA9
:1027680013F0040F06D00268536823F48023016B2A
:102778000B435360436A13F0100F06D00268936846
:1027880023F48053816B0B439360436A13F0200F4B
:1027980006D00268936823F40053C16B0B4393601F
:1027A800436A13F0400F0AD00268536823F4801379
:1027B800016C0B435360036CB3F5801F0BD0436A65
:1027C80013F0800F06D00268536823F40023816C4D
:1027D8000B43536070470268536823F4C003416C8D
:1027E8000B435360EBE72DE9F84305460E461746C1
:1027F8009946DDF820802B68DC6936EA04040CBFB2
:1028080001240024BC4236D1B8F1FF3FF3D0FEF7D3
:10281800BBFCA0EB0900404530D8B8F1000F2FD021
:102828002B681A6812F0040FE5D0802EE3D0402EF2
:10283800E1D0DA6912F0080F11D1DA6912F4006FE9
:10284800D9D04FF400621A622846FFF78CFE202385
:10285800C5F88430002385F8783003200CE008247C
:102868001C622846FFF77FFEC5F88440002385F8E0
:102878007830012000E00020BDE8F8830320FBE762
:102888000320F9E730B583B004460023C0F884304C
:10289800FEF77AFC05462268126812F0080F0FD17D
:1028A80023681B6813F0040F26D12023E367C4F8BC
:1028B800803000202066606684F8780003B030BD60
:1028C8006FF07E430093034600224FF40011204628
:1028D800FFF789FF0028E3D0226852E8003F23F081
:1028E800800342E800310029F6D12023E367002362
:1028F80084F878300320E1E76FF07E4300932B469D
:1029080000224FF480012046FFF76DFF0028CCD04D
:10291800226852E8003F23F4907342E8003100290E
:10292800F6D1226802F1080353E8003F23F00103BF
:10293800083242E800310029F3D12023C4F880305E
:10294800002384F878300320B8E768B310B504464C
:10295800C36F03B32423E3672268136823F00103DA
:102968001360636AE3B92046FFF726FE012811D0F9
:102978002268536823F4904353602268936823F0D5
:102988002A0393602268136843F00103136020460A
:10299800FFF778FF10BD80F87830FDF7C3FFD9E75F
:1029A8002046FFF7BBFEDEE701207047034AD2F856
:1029B800883043F47003C2F88830704700ED00E0B7
:1029C800DFF834D0FFF7F2FF0C480D490D4A002319
:1029D80002E0D458C4500433C4188C42F9D30A4ACC
:1029E8000A4C002301E013600432A242FBD3FDF736
:1029F80019FCFDF753FEFEE7003000200000002020
:102A08000C000020742A00080C000020F8020020A6
:102A1800FEE70000F8B500BFF8BC08BC9E4670474A
:0C2A2800F8B500BFF8BC08BC9E46704723
:102A34000102030405060708090A0B0C0D0E0F100A
:102A440002030405060708090A0B0C0D0E0F1010EB
:102A54000000000001020304000000000000000068
:082A6400010203040607080942
:042A6C00A1020008BB
:042A70007D020008DB
:0C2A7400010000001000000000127A00B9
:04000005080029C9FD
:00000001FF
